{
  "_format": "hh-sol-artifact-1",
  "contractName": "EwasteTracker",
  "sourceName": "contracts/EwasteTracker.sol",
  "abi": [
    {
      "inputs": [
        {
          "internalType": "address",
          "name": "_rewardToken",
          "type": "address"
        }
      ],
      "stateMutability": "nonpayable",
      "type": "constructor"
    },
    {
      "inputs": [
        {
          "internalType": "address",
          "name": "owner",
          "type": "address"
        }
      ],
      "name": "OwnableInvalidOwner",
      "type": "error"
    },
    {
      "inputs": [
        {
          "internalType": "address",
          "name": "account",
          "type": "address"
        }
      ],
      "name": "OwnableUnauthorizedAccount",
      "type": "error"
    },
    {
      "anonymous": false,
      "inputs": [
        {
          "indexed": true,
          "internalType": "uint256",
          "name": "id",
          "type": "uint256"
        },
        {
          "indexed": true,
          "internalType": "address",
          "name": "user",
          "type": "address"
        }
      ],
      "name": "ItemSubmitted",
      "type": "event"
    },
    {
      "anonymous": false,
      "inputs": [
        {
          "indexed": true,
          "internalType": "uint256",
          "name": "id",
          "type": "uint256"
        },
        {
          "indexed": true,
          "internalType": "address",
          "name": "collector",
          "type": "address"
        },
        {
          "indexed": false,
          "internalType": "uint256",
          "name": "reward",
          "type": "uint256"
        }
      ],
      "name": "ItemVerified",
      "type": "event"
    },
    {
      "anonymous": false,
      "inputs": [
        {
          "indexed": true,
          "internalType": "address",
          "name": "previousOwner",
          "type": "address"
        },
        {
          "indexed": true,
          "internalType": "address",
          "name": "newOwner",
          "type": "address"
        }
      ],
      "name": "OwnershipTransferred",
      "type": "event"
    },
    {
      "inputs": [
        {
          "internalType": "address",
          "name": "collector",
          "type": "address"
        }
      ],
      "name": "addCollector",
      "outputs": [],
      "stateMutability": "nonpayable",
      "type": "function"
    },
    {
      "inputs": [
        {
          "internalType": "address",
          "name": "",
          "type": "address"
        }
      ],
      "name": "collectors",
      "outputs": [
        {
          "internalType": "bool",
          "name": "",
          "type": "bool"
        }
      ],
      "stateMutability": "view",
      "type": "function"
    },
    {
      "inputs": [
        {
          "internalType": "uint256",
          "name": "itemId",
          "type": "uint256"
        }
      ],
      "name": "getItem",
      "outputs": [
        {
          "components": [
            {
              "internalType": "uint256",
              "name": "id",
              "type": "uint256"
            },
            {
              "internalType": "address",
              "name": "user",
              "type": "address"
            },
            {
              "internalType": "string",
              "name": "itemType",
              "type": "string"
            },
            {
              "internalType": "string",
              "name": "location",
              "type": "string"
            },
            {
              "internalType": "uint256",
              "name": "timestamp",
              "type": "uint256"
            },
            {
              "internalType": "enum EwasteTracker.Status",
              "name": "status",
              "type": "uint8"
            }
          ],
          "internalType": "struct EwasteTracker.EwasteItem",
          "name": "",
          "type": "tuple"
        }
      ],
      "stateMutability": "view",
      "type": "function"
    },
    {
      "inputs": [],
      "name": "itemCounter",
      "outputs": [
        {
          "internalType": "uint256",
          "name": "",
          "type": "uint256"
        }
      ],
      "stateMutability": "view",
      "type": "function"
    },
    {
      "inputs": [
        {
          "internalType": "uint256",
          "name": "",
          "type": "uint256"
        }
      ],
      "name": "items",
      "outputs": [
        {
          "internalType": "uint256",
          "name": "id",
          "type": "uint256"
        },
        {
          "internalType": "address",
          "name": "user",
          "type": "address"
        },
        {
          "internalType": "string",
          "name": "itemType",
          "type": "string"
        },
        {
          "internalType": "string",
          "name": "location",
          "type": "string"
        },
        {
          "internalType": "uint256",
          "name": "timestamp",
          "type": "uint256"
        },
        {
          "internalType": "enum EwasteTracker.Status",
          "name": "status",
          "type": "uint8"
        }
      ],
      "stateMutability": "view",
      "type": "function"
    },
    {
      "inputs": [],
      "name": "owner",
      "outputs": [
        {
          "internalType": "address",
          "name": "",
          "type": "address"
        }
      ],
      "stateMutability": "view",
      "type": "function"
    },
    {
      "inputs": [],
      "name": "renounceOwnership",
      "outputs": [],
      "stateMutability": "nonpayable",
      "type": "function"
    },
    {
      "inputs": [],
      "name": "rewardAmount",
      "outputs": [
        {
          "internalType": "uint256",
          "name": "",
          "type": "uint256"
        }
      ],
      "stateMutability": "view",
      "type": "function"
    },
    {
      "inputs": [],
      "name": "rewardToken",
      "outputs": [
        {
          "internalType": "contract RewardToken",
          "name": "",
          "type": "address"
        }
      ],
      "stateMutability": "view",
      "type": "function"
    },
    {
      "inputs": [
        {
          "internalType": "string",
          "name": "itemType",
          "type": "string"
        },
        {
          "internalType": "string",
          "name": "location",
          "type": "string"
        }
      ],
      "name": "submitItem",
      "outputs": [],
      "stateMutability": "nonpayable",
      "type": "function"
    },
    {
      "inputs": [
        {
          "internalType": "address",
          "name": "newOwner",
          "type": "address"
        }
      ],
      "name": "transferOwnership",
      "outputs": [],
      "stateMutability": "nonpayable",
      "type": "function"
    },
    {
      "inputs": [
        {
          "internalType": "uint256",
          "name": "itemId",
          "type": "uint256"
        }
      ],
      "name": "verifyItem",
      "outputs": [],
      "stateMutability": "nonpayable",
      "type": "function"
    }
  ],
  "bytecode": "0x60806040526000600255678ac7230489e800006003553480156200002257600080fd5b5060405162001a6e38038062001a6e83398181016040528101906200004891906200025a565b738c209a904ae64137452615e312a77cc4f3dca9d6600073ffffffffffffffffffffffffffffffffffffffff168173ffffffffffffffffffffffffffffffffffffffff1603620000d25760006040517f1e4fbdf7000000000000000000000000000000000000000000000000000000008152600401620000c991906200029d565b60405180910390fd5b620000e3816200012c60201b60201c565b5080600160006101000a81548173ffffffffffffffffffffffffffffffffffffffff021916908373ffffffffffffffffffffffffffffffffffffffff16021790555050620002ba565b60008060009054906101000a900473ffffffffffffffffffffffffffffffffffffffff169050816000806101000a81548173ffffffffffffffffffffffffffffffffffffffff021916908373ffffffffffffffffffffffffffffffffffffffff1602179055508173ffffffffffffffffffffffffffffffffffffffff168173ffffffffffffffffffffffffffffffffffffffff167f8be0079c531659141344cd1fd0a4f28419497f9722a3daafe3b4186f6b6457e060405160405180910390a35050565b600080fd5b600073ffffffffffffffffffffffffffffffffffffffff82169050919050565b60006200022282620001f5565b9050919050565b620002348162000215565b81146200024057600080fd5b50565b600081519050620002548162000229565b92915050565b600060208284031215620002735762000272620001f0565b5b6000620002838482850162000243565b91505092915050565b620002978162000215565b82525050565b6000602082019050620002b460008301846200028c565b92915050565b6117a480620002ca6000396000f3fe608060405234801561001057600080fd5b50600436106100b35760003560e01c80639593b523116100715780639593b52314610166578063b5b08f9b14610196578063bfb231d2146101b2578063f2fde38b146101e7578063f7b2a7be14610203578063f7c618c114610221576100b3565b8062bd0474146100b85780633129e773146100d4578063369dee42146101045780636d6d00ed14610120578063715018a61461013e5780638da5cb5b14610148575b600080fd5b6100d260048036038101906100cd9190610d1a565b61023f565b005b6100ee60048036038101906100e99190610d1a565b6104af565b6040516100fb9190610f2e565b60405180910390f35b61011e60048036038101906101199190610f7c565b6106a5565b005b610128610708565b6040516101359190610fb8565b60405180910390f35b61014661070e565b005b610150610722565b60405161015d9190610fe2565b60405180910390f35b610180600480360381019061017b9190610f7c565b61074b565b60405161018d9190611018565b60405180910390f35b6101b060048036038101906101ab9190611168565b61076b565b005b6101cc60048036038101906101c79190610d1a565b6108f4565b6040516101de96959493929190611239565b60405180910390f35b61020160048036038101906101fc9190610f7c565b610a6d565b005b61020b610af3565b6040516102189190610fb8565b60405180910390f35b610229610af9565b6040516102369190611307565b60405180910390f35b600560003373ffffffffffffffffffffffffffffffffffffffff1673ffffffffffffffffffffffffffffffffffffffff16815260200190815260200160002060009054906101000a900460ff166102cb576040517f08c379a00000000000000000000000000000000000000000000000000000000081526004016102c29061136e565b60405180910390fd5b600060028111156102df576102de610e27565b5b6004600083815260200190815260200160002060050160009054906101000a900460ff16600281111561031557610314610e27565b5b14610355576040517f08c379a000000000000000000000000000000000000000000000000000000000815260040161034c906113da565b60405180910390fd5b60026004600083815260200190815260200160002060050160006101000a81548160ff0219169083600281111561038f5761038e610e27565b5b0217905550600160009054906101000a900473ffffffffffffffffffffffffffffffffffffffff1673ffffffffffffffffffffffffffffffffffffffff166340c10f196004600084815260200190815260200160002060010160009054906101000a900473ffffffffffffffffffffffffffffffffffffffff166003546040518363ffffffff1660e01b81526004016104299291906113fa565b600060405180830381600087803b15801561044357600080fd5b505af1158015610457573d6000803e3d6000fd5b505050503373ffffffffffffffffffffffffffffffffffffffff16817f74127edc14a97cdb6d73c8ffa90ef85e9901ca6a5fb4e53da176a028357193346003546040516104a49190610fb8565b60405180910390a350565b6104b7610c72565b600460008381526020019081526020016000206040518060c0016040529081600082015481526020016001820160009054906101000a900473ffffffffffffffffffffffffffffffffffffffff1673ffffffffffffffffffffffffffffffffffffffff1673ffffffffffffffffffffffffffffffffffffffff16815260200160028201805461054590611452565b80601f016020809104026020016040519081016040528092919081815260200182805461057190611452565b80156105be5780601f10610593576101008083540402835291602001916105be565b820191906000526020600020905b8154815290600101906020018083116105a157829003601f168201915b505050505081526020016003820180546105d790611452565b80601f016020809104026020016040519081016040528092919081815260200182805461060390611452565b80156106505780601f1061062557610100808354040283529160200191610650565b820191906000526020600020905b81548152906001019060200180831161063357829003601f168201915b50505050508152602001600482015481526020016005820160009054906101000a900460ff16600281111561068857610687610e27565b5b600281111561069a57610699610e27565b5b815250509050919050565b6106ad610b1f565b6001600560008373ffffffffffffffffffffffffffffffffffffffff1673ffffffffffffffffffffffffffffffffffffffff16815260200190815260200160002060006101000a81548160ff02191690831515021790555050565b60025481565b610716610b1f565b6107206000610ba6565b565b60008060009054906101000a900473ffffffffffffffffffffffffffffffffffffffff16905090565b60056020528060005260406000206000915054906101000a900460ff1681565b6002600081548092919061077e906114b2565b91905055506040518060c0016040528060025481526020013373ffffffffffffffffffffffffffffffffffffffff168152602001838152602001828152602001428152602001600060028111156107d8576107d7610e27565b5b8152506004600060025481526020019081526020016000206000820151816000015560208201518160010160006101000a81548173ffffffffffffffffffffffffffffffffffffffff021916908373ffffffffffffffffffffffffffffffffffffffff1602179055506040820151816002019081610856919061169c565b50606082015181600301908161086c919061169c565b506080820151816004015560a08201518160050160006101000a81548160ff021916908360028111156108a2576108a1610e27565b5b02179055509050503373ffffffffffffffffffffffffffffffffffffffff166002547ff9ad59b04d6e591dd28c8c5e117d2cd1b73ec424a38d75fe50170f9915faa35160405160405180910390a35050565b60046020528060005260406000206000915090508060000154908060010160009054906101000a900473ffffffffffffffffffffffffffffffffffffffff169080600201805461094390611452565b80601f016020809104026020016040519081016040528092919081815260200182805461096f90611452565b80156109bc5780601f10610991576101008083540402835291602001916109bc565b820191906000526020600020905b81548152906001019060200180831161099f57829003601f168201915b5050505050908060030180546109d190611452565b80601f01602080910402602001604051908101604052809291908181526020018280546109fd90611452565b8015610a4a5780601f10610a1f57610100808354040283529160200191610a4a565b820191906000526020600020905b815481529060010190602001808311610a2d57829003601f168201915b5050505050908060040154908060050160009054906101000a900460ff16905086565b610a75610b1f565b600073ffffffffffffffffffffffffffffffffffffffff168173ffffffffffffffffffffffffffffffffffffffff1603610ae75760006040517f1e4fbdf7000000000000000000000000000000000000000000000000000000008152600401610ade9190610fe2565b60405180910390fd5b610af081610ba6565b50565b60035481565b600160009054906101000a900473ffffffffffffffffffffffffffffffffffffffff1681565b610b27610c6a565b73ffffffffffffffffffffffffffffffffffffffff16610b45610722565b73ffffffffffffffffffffffffffffffffffffffff1614610ba457610b68610c6a565b6040517f118cdaa7000000000000000000000000000000000000000000000000000000008152600401610b9b9190610fe2565b60405180910390fd5b565b60008060009054906101000a900473ffffffffffffffffffffffffffffffffffffffff169050816000806101000a81548173ffffffffffffffffffffffffffffffffffffffff021916908373ffffffffffffffffffffffffffffffffffffffff1602179055508173ffffffffffffffffffffffffffffffffffffffff168173ffffffffffffffffffffffffffffffffffffffff167f8be0079c531659141344cd1fd0a4f28419497f9722a3daafe3b4186f6b6457e060405160405180910390a35050565b600033905090565b6040518060c0016040528060008152602001600073ffffffffffffffffffffffffffffffffffffffff16815260200160608152602001606081526020016000815260200160006002811115610cca57610cc9610e27565b5b81525090565b6000604051905090565b600080fd5b600080fd5b6000819050919050565b610cf781610ce4565b8114610d0257600080fd5b50565b600081359050610d1481610cee565b92915050565b600060208284031215610d3057610d2f610cda565b5b6000610d3e84828501610d05565b91505092915050565b610d5081610ce4565b82525050565b600073ffffffffffffffffffffffffffffffffffffffff82169050919050565b6000610d8182610d56565b9050919050565b610d9181610d76565b82525050565b600081519050919050565b600082825260208201905092915050565b60005b83811015610dd1578082015181840152602081019050610db6565b60008484015250505050565b6000601f19601f8301169050919050565b6000610df982610d97565b610e038185610da2565b9350610e13818560208601610db3565b610e1c81610ddd565b840191505092915050565b7f4e487b7100000000000000000000000000000000000000000000000000000000600052602160045260246000fd5b60038110610e6757610e66610e27565b5b50565b6000819050610e7882610e56565b919050565b6000610e8882610e6a565b9050919050565b610e9881610e7d565b82525050565b600060c083016000830151610eb66000860182610d47565b506020830151610ec96020860182610d88565b5060408301518482036040860152610ee18282610dee565b91505060608301518482036060860152610efb8282610dee565b9150506080830151610f106080860182610d47565b5060a0830151610f2360a0860182610e8f565b508091505092915050565b60006020820190508181036000830152610f488184610e9e565b905092915050565b610f5981610d76565b8114610f6457600080fd5b50565b600081359050610f7681610f50565b92915050565b600060208284031215610f9257610f91610cda565b5b6000610fa084828501610f67565b91505092915050565b610fb281610ce4565b82525050565b6000602082019050610fcd6000830184610fa9565b92915050565b610fdc81610d76565b82525050565b6000602082019050610ff76000830184610fd3565b92915050565b60008115159050919050565b61101281610ffd565b82525050565b600060208201905061102d6000830184611009565b92915050565b600080fd5b600080fd5b7f4e487b7100000000000000000000000000000000000000000000000000000000600052604160045260246000fd5b61107582610ddd565b810181811067ffffffffffffffff821117156110945761109361103d565b5b80604052505050565b60006110a7610cd0565b90506110b3828261106c565b919050565b600067ffffffffffffffff8211156110d3576110d261103d565b5b6110dc82610ddd565b9050602081019050919050565b82818337600083830152505050565b600061110b611106846110b8565b61109d565b90508281526020810184848401111561112757611126611038565b5b6111328482856110e9565b509392505050565b600082601f83011261114f5761114e611033565b5b813561115f8482602086016110f8565b91505092915050565b6000806040838503121561117f5761117e610cda565b5b600083013567ffffffffffffffff81111561119d5761119c610cdf565b5b6111a98582860161113a565b925050602083013567ffffffffffffffff8111156111ca576111c9610cdf565b5b6111d68582860161113a565b9150509250929050565b600082825260208201905092915050565b60006111fc82610d97565b61120681856111e0565b9350611216818560208601610db3565b61121f81610ddd565b840191505092915050565b61123381610e7d565b82525050565b600060c08201905061124e6000830189610fa9565b61125b6020830188610fd3565b818103604083015261126d81876111f1565b9050818103606083015261128181866111f1565b90506112906080830185610fa9565b61129d60a083018461122a565b979650505050505050565b6000819050919050565b60006112cd6112c86112c384610d56565b6112a8565b610d56565b9050919050565b60006112df826112b2565b9050919050565b60006112f1826112d4565b9050919050565b611301816112e6565b82525050565b600060208201905061131c60008301846112f8565b92915050565b7f4e6f7420617574686f72697a656420636f6c6c6563746f720000000000000000600082015250565b60006113586018836111e0565b915061136382611322565b602082019050919050565b600060208201905081810360008301526113878161134b565b9050919050565b7f416c7265616479207665726966696564206f7220696e76616c69640000000000600082015250565b60006113c4601b836111e0565b91506113cf8261138e565b602082019050919050565b600060208201905081810360008301526113f3816113b7565b9050919050565b600060408201905061140f6000830185610fd3565b61141c6020830184610fa9565b9392505050565b7f4e487b7100000000000000000000000000000000000000000000000000000000600052602260045260246000fd5b6000600282049050600182168061146a57607f821691505b60208210810361147d5761147c611423565b5b50919050565b7f4e487b7100000000000000000000000000000000000000000000000000000000600052601160045260246000fd5b60006114bd82610ce4565b91507fffffffffffffffffffffffffffffffffffffffffffffffffffffffffffffffff82036114ef576114ee611483565b5b600182019050919050565b60008190508160005260206000209050919050565b60006020601f8301049050919050565b600082821b905092915050565b60006008830261155c7fffffffffffffffffffffffffffffffffffffffffffffffffffffffffffffffff8261151f565b611566868361151f565b95508019841693508086168417925050509392505050565b600061159961159461158f84610ce4565b6112a8565b610ce4565b9050919050565b6000819050919050565b6115b38361157e565b6115c76115bf826115a0565b84845461152c565b825550505050565b600090565b6115dc6115cf565b6115e78184846115aa565b505050565b5b8181101561160b576116006000826115d4565b6001810190506115ed565b5050565b601f82111561165057611621816114fa565b61162a8461150f565b81016020851015611639578190505b61164d6116458561150f565b8301826115ec565b50505b505050565b600082821c905092915050565b600061167360001984600802611655565b1980831691505092915050565b600061168c8383611662565b9150826002028217905092915050565b6116a582610d97565b67ffffffffffffffff8111156116be576116bd61103d565b5b6116c88254611452565b6116d382828561160f565b600060209050601f83116001811461170657600084156116f4578287015190505b6116fe8582611680565b865550611766565b601f198416611714866114fa565b60005b8281101561173c57848901518255600182019150602085019450602081019050611717565b868310156117595784890151611755601f891682611662565b8355505b6001600288020188555050505b50505050505056fea2646970667358221220c6fc1844062bb87ed778efc451edcde1ae69d1cdac028323e650650169ea803e64736f6c63430008140033",
  "linkReferences": {},
  "deployedLinkReferences": {}
}